{
  "contractName": "RegistrationLogin",
  "abi": [
    {
      "anonymous": false,
      "inputs": [
        {
          "indexed": false,
          "internalType": "string",
          "name": "username",
          "type": "string"
        },
        {
          "indexed": false,
          "internalType": "string",
          "name": "email",
          "type": "string"
        }
      ],
      "name": "UserLoggedIn",
      "type": "event"
    },
    {
      "anonymous": false,
      "inputs": [
        {
          "indexed": false,
          "internalType": "string",
          "name": "username",
          "type": "string"
        },
        {
          "indexed": false,
          "internalType": "string",
          "name": "email",
          "type": "string"
        },
        {
          "indexed": false,
          "internalType": "address",
          "name": "userAddress",
          "type": "address"
        }
      ],
      "name": "UserRegistered",
      "type": "event"
    },
    {
      "inputs": [
        {
          "internalType": "string",
          "name": "_username",
          "type": "string"
        },
        {
          "internalType": "string",
          "name": "_email",
          "type": "string"
        },
        {
          "internalType": "string",
          "name": "_password",
          "type": "string"
        }
      ],
      "name": "register",
      "outputs": [],
      "stateMutability": "nonpayable",
      "type": "function"
    },
    {
      "inputs": [
        {
          "internalType": "string",
          "name": "_email",
          "type": "string"
        },
        {
          "internalType": "string",
          "name": "_password",
          "type": "string"
        }
      ],
      "name": "login",
      "outputs": [
        {
          "internalType": "string",
          "name": "",
          "type": "string"
        },
        {
          "internalType": "address",
          "name": "",
          "type": "address"
        }
      ],
      "stateMutability": "nonpayable",
      "type": "function"
    }
  ],
  "bytecode": "0x608060405234801561001057600080fd5b50610d8d806100206000396000f3fe608060405234801561001057600080fd5b50600436106100365760003560e01c80634cd08d031461003b57806358467dbc14610057575b600080fd5b610055600480360381019061005091906107ca565b610088565b005b610071600480360381019061006c9190610871565b610379565b60405161007f9291906109b2565b60405180910390f35b6001826040516100989190610a1e565b908152602001604051809103902060030160149054906101000a900460ff16156100f7576040517f08c379a00000000000000000000000000000000000000000000000000000000081526004016100ee90610a81565b60405180910390fd5b600073ffffffffffffffffffffffffffffffffffffffff1660008460405161011f9190610a1e565b908152602001604051809103902060009054906101000a900473ffffffffffffffffffffffffffffffffffffffff1673ffffffffffffffffffffffffffffffffffffffff16146101a4576040517f08c379a000000000000000000000000000000000000000000000000000000000815260040161019b90610aed565b60405180910390fd5b6000816040516020016101b79190610a1e565b6040516020818303038152906040528051906020012090506040518060a001604052808581526020018481526020018281526020013373ffffffffffffffffffffffffffffffffffffffff1681526020016001151581525060018460405161021f9190610a1e565b908152602001604051809103902060008201518160000190805190602001906102499291906105cd565b5060208201518160010190805190602001906102669291906105cd565b506040820151816002015560608201518160030160006101000a81548173ffffffffffffffffffffffffffffffffffffffff021916908373ffffffffffffffffffffffffffffffffffffffff16021790555060808201518160030160146101000a81548160ff021916908315150217905550905050336000856040516102ec9190610a1e565b908152602001604051809103902060006101000a81548173ffffffffffffffffffffffffffffffffffffffff021916908373ffffffffffffffffffffffffffffffffffffffff1602179055507f7d18b42f8b54b38db3858d85addd4845b244c7ab57e5b3246475b88815c0c5cf84843360405161036b93929190610b0d565b60405180910390a150505050565b6060600060018460405161038d9190610a1e565b908152602001604051809103902060030160149054906101000a900460ff166103eb576040517f08c379a00000000000000000000000000000000000000000000000000000000081526004016103e290610b9e565b60405180910390fd5b6000836040516020016103fe9190610a1e565b604051602081830303815290604052805190602001209050806001866040516104279190610a1e565b90815260200160405180910390206002015414610479576040517f08c379a000000000000000000000000000000000000000000000000000000000815260040161047090610c0a565b60405180910390fd5b7f6d2522b0fa7d67bdab2f9971773f22a4e5f30a3a44cfdb04c82e8ebbd6f51b0e6001866040516104aa9190610a1e565b9081526020016040518091039020600001866040516104ca929190610d20565b60405180910390a16001856040516104e29190610a1e565b90815260200160405180910390206000016001866040516105039190610a1e565b908152602001604051809103902060030160009054906101000a900473ffffffffffffffffffffffffffffffffffffffff1681805461054190610c59565b80601f016020809104026020016040519081016040528092919081815260200182805461056d90610c59565b80156105ba5780601f1061058f576101008083540402835291602001916105ba565b820191906000526020600020905b81548152906001019060200180831161059d57829003601f168201915b5050505050915092509250509250929050565b8280546105d990610c59565b90600052602060002090601f0160209004810192826105fb5760008555610642565b82601f1061061457805160ff1916838001178555610642565b82800160010185558215610642579182015b82811115610641578251825591602001919060010190610626565b5b50905061064f9190610653565b5090565b5b8082111561066c576000816000905550600101610654565b5090565b6000604051905090565b600080fd5b600080fd5b600080fd5b600080fd5b6000601f19601f8301169050919050565b7f4e487b7100000000000000000000000000000000000000000000000000000000600052604160045260246000fd5b6106d78261068e565b810181811067ffffffffffffffff821117156106f6576106f561069f565b5b80604052505050565b6000610709610670565b905061071582826106ce565b919050565b600067ffffffffffffffff8211156107355761073461069f565b5b61073e8261068e565b9050602081019050919050565b82818337600083830152505050565b600061076d6107688461071a565b6106ff565b90508281526020810184848401111561078957610788610689565b5b61079484828561074b565b509392505050565b600082601f8301126107b1576107b0610684565b5b81356107c184826020860161075a565b91505092915050565b6000806000606084860312156107e3576107e261067a565b5b600084013567ffffffffffffffff8111156108015761080061067f565b5b61080d8682870161079c565b935050602084013567ffffffffffffffff81111561082e5761082d61067f565b5b61083a8682870161079c565b925050604084013567ffffffffffffffff81111561085b5761085a61067f565b5b6108678682870161079c565b9150509250925092565b600080604083850312156108885761088761067a565b5b600083013567ffffffffffffffff8111156108a6576108a561067f565b5b6108b28582860161079c565b925050602083013567ffffffffffffffff8111156108d3576108d261067f565b5b6108df8582860161079c565b9150509250929050565b600081519050919050565b600082825260208201905092915050565b60005b83811015610923578082015181840152602081019050610908565b83811115610932576000848401525b50505050565b6000610943826108e9565b61094d81856108f4565b935061095d818560208601610905565b6109668161068e565b840191505092915050565b600073ffffffffffffffffffffffffffffffffffffffff82169050919050565b600061099c82610971565b9050919050565b6109ac81610991565b82525050565b600060408201905081810360008301526109cc8185610938565b90506109db60208301846109a3565b9392505050565b600081905092915050565b60006109f8826108e9565b610a0281856109e2565b9350610a12818560208601610905565b80840191505092915050565b6000610a2a82846109ed565b915081905092915050565b7f456d61696c20616c726561647920726567697374657265640000000000000000600082015250565b6000610a6b6018836108f4565b9150610a7682610a35565b602082019050919050565b60006020820190508181036000830152610a9a81610a5e565b9050919050565b7f557365726e616d6520616c72656164792074616b656e00000000000000000000600082015250565b6000610ad76016836108f4565b9150610ae282610aa1565b602082019050919050565b60006020820190508181036000830152610b0681610aca565b9050919050565b60006060820190508181036000830152610b278186610938565b90508181036020830152610b3b8185610938565b9050610b4a60408301846109a3565b949350505050565b7f55736572206e6f74207265676973746572656400000000000000000000000000600082015250565b6000610b886013836108f4565b9150610b9382610b52565b602082019050919050565b60006020820190508181036000830152610bb781610b7b565b9050919050565b7f496e76616c69642070617373776f726400000000000000000000000000000000600082015250565b6000610bf46010836108f4565b9150610bff82610bbe565b602082019050919050565b60006020820190508181036000830152610c2381610be7565b9050919050565b7f4e487b7100000000000000000000000000000000000000000000000000000000600052602260045260246000fd5b60006002820490506001821680610c7157607f821691505b60208210811415610c8557610c84610c2a565b5b50919050565b60008190508160005260206000209050919050565b60008154610cad81610c59565b610cb781866108f4565b94506001821660008114610cd25760018114610ce457610d17565b60ff1983168652602086019350610d17565b610ced85610c8b565b60005b83811015610d0f57815481890152600182019150602081019050610cf0565b808801955050505b50505092915050565b60006040820190508181036000830152610d3a8185610ca0565b90508181036020830152610d4e8184610938565b9050939250505056fea2646970667358221220b6f1c757e542988997650ac0b4e80d98c6eb54ac0547e059e5f8e37e60da33a664736f6c634300080c0033",
  "immutableReferences": {},
  "source": "// SPDX-License-Identifier: MIT\r\npragma solidity ^0.8.0;\r\n\r\ncontract RegistrationLogin {\r\n    struct User {\r\n        string username;\r\n        string email;\r\n        bytes32 passwordHash;\r\n        address userAddress;\r\n        bool registered;\r\n    }\r\n    \r\n    mapping(string => address) usernameToAddress;\r\n    mapping(string => User) users;\r\n    \r\n    event UserRegistered(string username, string email, address userAddress);\r\n    event UserLoggedIn(string username, string email);\r\n    \r\n    function register(string memory _username, string memory _email, string memory _password) public {\r\n        require(!users[_email].registered, \"Email already registered\");\r\n        require(usernameToAddress[_username] == address(0), \"Username already taken\");\r\n        \r\n        bytes32 passwordHash = keccak256(abi.encodePacked(_password));\r\n        users[_email] = User(_username, _email, passwordHash, msg.sender, true);\r\n        usernameToAddress[_username] = msg.sender;\r\n        \r\n        emit UserRegistered(_username, _email, msg.sender);\r\n    }\r\n    \r\n    function login(string memory _email, string memory _password) public returns(string memory, address) {\r\n        require(users[_email].registered, \"User not registered\");\r\n        bytes32 passwordHash = keccak256(abi.encodePacked(_password));\r\n        require(users[_email].passwordHash == passwordHash, \"Invalid password\");\r\n        \r\n        emit UserLoggedIn(users[_email].username, _email);\r\n\r\n        return (users[_email].username, users[_email].userAddress);\r\n    }\r\n}\r\n\r\n",
  "sourcePath": "C:\\Users\\Mario\\Desktop\\blockhain seminar\\authentification-using-blockchain\\src\\contracts\\RegistrationLogin.sol",
  "compiler": {
    "name": "solc",
    "version": "0.8.12+commit.f00d7308.Emscripten.clang"
  },
  "schemaVersion": "3.4.4",
  "updatedAt": "2024-06-17T19:50:44.590Z",
  "networkType": "ethereum",
  "devdoc": {
    "kind": "dev",
    "methods": {},
    "version": 1
  },
  "userdoc": {
    "kind": "user",
    "methods": {},
    "version": 1
  }
}